:060000000A128A110C280F
:10000800FE00030EF1000A08F2000A128A111528F0
:100018000A128A110F28F601F70183010A128A11C0
:10002800E928831203138C1D1A281B286D28141223
:10003800141B1F2820282428941F232824282B2811
:100048001308F0007008F60014139413141683169E
:100058000313941A302831284928141934283528CC
:100068004928831203131308F0007008F6008C1156
:10007800141683160313141C422843283D28A6305F
:10008800F000F00B452800006A28941A4C284D28E7
:100098006A28141D502851286A288312031313084C
:1000A800F0007008F6008316031314107708831203
:1000B800031393001416A630F000F00B612800001B
:1000C80083160313141869286A28642883120313F3
:1000D8008C110C1F7028712886281F0CF000700CDA
:1000E8000F39003A031D79287A2881281E08F00064
:1000F8007008F7007708950085281E08860006080E
:100108009B000C1372088A00710E8300FE0E7E0E8F
:10011800090003308316031788008901033083160A
:10012800031385008601083087008801890183123E
:1001380003138501860187018801890170308316C0
:1001480003138F040F149F131F129F12831203139C
:100158001F083F3980389F00C3309F051F14213086
:10016800F400F40BB5283F308312031397051708E2
:10017800F0390C3897001D08F0390C389D000F3005
:1001880095000F309B00CF3097059D121D129214D9
:1001980012141215FA3083160313920083120313F4
:1001A8008C108C1CD828D928D5288C108B170B17A5
:1001B800831603130C17831203130C1370300A12DF
:1001C8008A1110210A128A1108000A128A118D2038
:1001D8000A128A11831203139F149F18F428F52812
:1001E800F1281F0CF500750C0F39003A031DFD2886
:1001F800FE2803291F08C33904389F000529C33086
:100208009F052130F500F50B0729831203139F146E
:10021800F1280A128A110C28F300730883160313B5
:10022800930036308312031394008030831603132F
:10023800940001309100871507168B170B1783124E
:0C02480003138C11831603138C1508009F
:04400E00C420FF3F8C
:00000001FF
