:060000000A128A110C280F
:10000800FE00030EF5000A08F6000A128A111728E6
:100018000A128A110F28F001F101F201F30183019C
:100028000A128A11E0280B1C1A281B282E28831272
:100038000313061C2028212825280130F400740801
:10004800F307861C282829282D280130F400740875
:10005800F2070B10831203138C1D332834289A28B7
:100068001412141B382839283D28941F3C283D2891
:1000780044281308F4007408F00014139413141699
:1000880083160313941A49284A28682814194D28F6
:100098004E286828831203131308F4007408F0002C
:1000A8008C11141683160313141C5B285C2856281D
:1000B800831203131308F4007408F100A630F40047
:1000C800F40B642800009728941A6B286C2897284A
:1000D800141D6F2870289728831203131308F4003F
:1000E8007408F0008316031314107108031D7D288B
:1000F8007E28822873088312031393007103031D5B
:10010800862887288A287208831293008312141677
:10011800A630F400F40B8E2800008316031314187D
:10012800962897289128831203138C1176088A0041
:10013800750E8300FE0E7E0E0900831603178801D4
:10014800890183160313850103308600870188011E
:1001580089018312031385018601870188018901BA
:10016800831603131614961470308F040F148B170C
:100178000B170B108B1560300A128A11C6200A1251
:100188008A110800F70077088316031393003630A6
:1001980083120313940080308316031394000130F4
:1001A8009100871507168B170B17831203138C11F1
:1001B800831603138C1508000A128A11A1200A124B
:0A01C8008A11E5280A128A110C289A
:04400E00C420FF3F8C
:00000001FF
