:060000000A128A110C280F
:10000800FE00030EF1000A08F2000A128A15A12F59
:100018000A128A110F28F801F901FA018312031351
:10002800DA01DB0183010A128A11C72E8312031336
:100038002D088039B2003208B7002D08B200320707
:10004800B3003308BD00AC1F2A282B282C283D14E8
:100058003D0803193028312840283D0A031D35285A
:1000680036283E280030AD000030AC000030AB0030
:100078000030AA00AC1748280030AD000030AC00B2
:100088000030AB000030AA0031088039B2003208D5
:10009800B7063108B2003207B3003308BC00B01FFE
:1000A8005628572858283C143C0803195C285D2812
:1000B8006C283C0A031D612862286A280030B100B8
:1000C8000030B0000030AF000030AE00B017742828
:1000D8000030B1000030B0000030AF000030AE009A
:1000E8003C080319782879287E283D08031D7D28B7
:1000F8007E2887280030AD000030AC000030AB000F
:100108000030AA007A2B2A08B2003208F30030081F
:100118000A128A1508270A128A117408831203130F
:10012800C3007308C2004208B200B301B401B501AC
:100138003508BB003408BA003308B9003208B800E3
:100148004308B200B301B401B5013508C100340851
:10015800C0003308BF003208BE002B08B2003208C6
:10016800F3002F080A128A1508270A128A11740840
:1001780083120313C3007308C2004208B200B3011C
:10018800B401B5013208B807330803110318013E5A
:100198000319CF28B907340803110318013E0319BE
:1001A800D628BA07350803110318013E0319DD28BC
:1001B800BB074308B200B301B401B5013208BE075A
:1001C800330803110318013E0319EB28BF0734084D
:1001D80003110318013E0319F228C007350803115B
:1001E8000318013E0319F928C1072C08B200320888
:1001F800F3002E080A128A1508270A128A117408B1
:1002080083120313C3007308C2004208B200B3018B
:10021800B401B5013208B807330803110318013EC9
:1002280003191729B907340803110318013E0319E4
:100238001E29BA07350803110318013E0319252999
:10024800BB074308B200B301B401B5013208BE07C9
:10025800330803110318013E03193329BF07340873
:1002680003110318013E03193A29C0073508031181
:100278000318013E03194129C1070830B2000310D1
:10028800B80DB90DBA0DBB0DB20B43292B08B2003E
:100298003208F3002E080A128A1508270A128A1152
:1002A800740883120313C3007308C2004208B20023
:1002B8004308B300B401B5013208B8073308031185
:1002C8000318013E03196929B907340803110318F3
:1002D800013E03197029BA07350803110318013EB6
:1002E80003197729BB072A08B2003208F3002F0840
:1002F8000A128A1508270A128A117408831203132E
:10030800C3007308C2004208B2004308B300B40136
:10031800B5013208B807330803110318013E031961
:100328009629B907340803110318013E03199D29BA
:10033800BA07350803110318013E0319A429BB079E
:100348000830B2000310B80DB90DBA0DBB0DB20BD1
:10035800A6292A08B2003208F3002E080A128A15C4
:1003680008270A128A11740883120313C30073083A
:10037800C2004208B2004308B300B401B501320814
:10038800B807330803110318013E0319CC29B9072C
:10039800340803110318013E0319D329BA07350895
:1003A80003110318013E0319DA29BB072B08B20011
:1003B8003208F30030080A128A1508270A128A112F
:1003C800740883120313C3007308C2004208B20002
:1003D8004308B300B401B5013208BE07330803115E
:1003E8000318013E0319F929BF073408031103183C
:1003F800013E0319002AC007350803110318013EFE
:100408000319072AC1072C08B2003208F3002F0885
:100418000A128A1508270A128A117408831203130C
:10042800C3007308C2004208B2004308B300B40115
:10043800B5013208BE07330803110318013E03193A
:10044800262ABF07340803110318013E03192D2A71
:10045800C007350803110318013E0319342AC107E0
:100468002C08B2003208F30030080A128A1508274F
:100478000A128A11740883120313C3007308C20096
:100488004208B2004308B300B401B50108300310B4
:10049800B20DB30DB40DB50DFF3E031D4B2A320846
:1004A800BE07330803110318013E03195C2ABF076E
:1004B800340803110318013E0319632AC0073508DD
:1004C80003110318013E03196A2AC1073808B2004C
:1004D8003908B3003A08B4003B08B50018300310D7
:1004E800B50CB40CB30CB20CFF3E031D732A3208D2
:1004F800BE07330803110318013E0319842ABF07F6
:10050800340803110318013E03198B2AC007350864
:1005180003110318013E0319922AC1070830B200DB
:100528000310B80DB90DBA0DBB0DB20B942A3D08D6
:100538003C07B200B301B30D3208823EC200330853
:100548000318013EFF3EC300C62A0130B200031063
:10055800BE0DBF0DC00DC10DB20BAB2ABB1FB52A16
:10056800B62AB72A3E140130B2000310B80DB90DEF
:10057800BA0DBB0DB20BB92AFF30C2070318C30A64
:10058800FF30C307C01FC92ACA2AA92ABC01BB1F3A
:10059800CE2ACF2AEB2AFF303805B200FF303905C2
:1005A800B300FF303A05B4007F303B05B50035088D
:1005B8003404330432040319E22AE32AE62ABC018C
:1005C800BC0AEB2A3E1CE92AEA2AEB2AE32A3C0861
:1005D8000319EF2AF02A212B0130BE070030031837
:1005E8000130BF07003003180130C007003003187E
:1005F8000130C107411C012B022B212B3E08B20000
:100608003F08B3004008B4004108B5000130B60007
:10061800350DB50CB40CB30CB20CB60B0C2B35085D
:10062800C1003408C0003308BF003208BE000130E2
:10063800C2070318C30A0030C3074308803AFF0003
:1006480080307F02031D2A2BFF304202031C2D2B12
:100658002E2B392B7F3083120313C1008030C0004A
:100668000030BF000030BE006E2B83120313430816
:10067800803AFF0080307F02031D442B0130420284
:100688000318472B482B542B003083120313C10047
:100698000030C0000030BF000030BE00B7016E2B34
:1006A800831203134208B2003208BD00FF30BE05B2
:1006B800FF30BF057F30C0050030C1053D1C652BEC
:1006C800662B672BC0173D08B2000310320CB3002D
:1006D8003308C1003708B2003208C1044108AD0030
:1006E8004008AC003F08AB003E08AA00080083128F
:1006F800031323088039A8002808F3002308A8005A
:100708002807A9002908F500A21F8B2B8C2B8D2BFD
:10071800751475080319912B922BA22B750A031DCA
:10072800962B972B9F2B0030A3000030A20000309F
:10073800A1000030A000A217A301AA2B0030A3003B
:100748000030A2000030A1000030A0002708803946
:10075800A8002808F400740873060319B42BB52BF5
:10076800B62B73172708A8002807A9002908F40042
:10077800A61FBF2BC02BC12B741474080319C52BDB
:10078800C62BD62B740A031DCA2BCB2BD32B0030B8
:10079800A7000030A6000030A5000030A400A6176E
:1007A800A701DE2B0030A7000030A6000030A5000E
:1007B8000030A400750874020318E32BE42B282CDE
:1007C800731FE72BE82BEC2B8030A8002808F306D2
:1007D8007508A8002808F6007408A8002808F5007D
:1007E8007608A8002808F4002008A8002808F600C1
:1007F8002408A8002808A0007608A8002808A40053
:100808002108A8002808F6002508A8002808A10043
:100818007608A8002808A5002208A8002808F600DD
:100828002608A8002808A2007608A8002808A6001C
:100838002308A8002808F6002708A8002808A3000D
:100848007608A8002808A700F6017408A800A901DE
:100858002908AB0075082802AA00031CAB032B0863
:10086800803AFF0080307F02031D3C2C1A302A0298
:10087800031C3F2C402C812C8312031323082204D1
:1008880021042004031D492C4B2C01304C2C003032
:10089800A8002808F6000030A3000030A2000030AD
:1008A800A1000030A0007408A8002808F500872CD3
:1008B800761C5F2C602C6B2C760883120313A8001F
:1008C8000310280C0138A9002908F6006D2C031024
:1008D800F60C83120313201C722C732C742CF6173D
:1008E8000130A800230DA30CA20CA10CA00CA80B8E
:1008F800762C0130A8002808F50774087502031C37
:10090800862C872C5C2C731B8A2C8B2CDA2C750874
:10091800031D8F2C902C9B2C003083120313A300F3
:100928000030A2000030A1000030A0000A2E83127F
:1009380003132408A007250803110318013E03190F
:10094800A62CA107260803110318013E0319AD2C94
:10095800A207270803110318013E0319B42CA307A3
:10096800231CB72CB82C902D761CBB2CBC2CC52C6A
:100978007608A8000310280C0138A9002908F600F9
:10098800C72C0310F60C201CCA2CCB2CCC2CF61729
:100998000130A800230DA30CA20CA10CA00CA80BDD
:1009A800CE2C0130A8002808F507902D83120313D8
:1009B8002308803AFF002708803A7F02031DEE2CA7
:1009C80026082202031DEE2C25082102031DEE2C09
:1009D800240820020318F12CF22C4A2DFF30A8001D
:1009E800FF30A900FF30AA00FF30AB002408AC009C
:1009F8002508AD002608AE002708AF002008AC0285
:100A08002108031C210F092D0A2DAD022208031C01
:100A1800220F0F2D102DAE022308031C230F152DB6
:100A2800162DAF022C08A8072D0803182D0F1D2D11
:100A38001E2DA9072E0803182E0F232D242DAA07D3
:100A48002F0803182F0AAB072B08A3002A08A200B7
:100A58002908A1002808A0008030A8002808F3066B
:100A6800F609F60A7608031D3A2D3B2D582D01305C
:100A7800A007003003180130A10700300318013027
:100A8800A207003003180130A307582D2408A0023C
:100A98002508031C250FA1022608031C260FA20205
:100AA8002708031C270FA30223082204210420047B
:100AB800031D5F2D602D8C2D7608031D642D652D7B
:100AC8008C2D0030A3000030A2000030A1000030BF
:100AD800A0000A2E0130A8000310A00DA10DA20D40
:100AE800A30DA80B702DF61F7A2D7B2D7C2D2014BD
:100AF800761C7F2D802D832D0314F60D852D031074
:100B0800F60D75080319892D8A2D8C2D0130F502F3
:100B1800A21F8F2D902D6E2DF401F61F942D952D6B
:100B2800A32D76087F3903199A2D9B2D9E2DF4014C
:100B3800F40AA32D201CA12DA22DA32D9B2D7408F2
:100B48000319A72DA82DDC2D0130A00700300318AC
:100B58000130A107003003180130A2070030031844
:100B68000130A307231CB92DBA2DDC2D2008A800BD
:100B78002108A9002208AA002308AB000130AC0014
:100B88002B0DAB0CAA0CA90CA80CAC0BC42D2B0874
:100B9800A3002A08A2002908A1002808A000750AB5
:100BA8000319D72DD82DDC2D0130A8002808F5070A
:100BB800750A0319E02DE12DE62D7508031DE52DB5
:100BC800E62DF42D0030A3000030A2000030A10073
:100BD8000030A0007508031DF22DF32DF42DF3014C
:100BE800751CF72DF82DFA2DA217FE2D7F30A800C1
:100BF8002808A2057508A8000310280CA9002908D0
:100C0800A300F31F082E092E0A2EA317080083122B
:100C18000313A40024080319122E132E272EF61FDF
:100C2800162E172E272E7309A6007409A70075091A
:100C3800A8007609A900A60A0319A70A0319A80A91
:100C48000319A90A2F2E7608A9007508A8007408A8
:100C5800A7007308A6007608750474047304031DBE
:100C6800362E372E402E0030F6000030F5000030CA
:100C7800F4000030F300C62E9630A0002008A5002E
:100C8800522E0130A0002008A50701300310A90C3E
:100C9800A80CA70CA60CFF3E031D4A2EFE30290502
:100CA800031D572E582E452E742E0130A000200803
:100CB800A5070130A607003003180130A707003048
:100CC80003180130A807003003180130A9070130C4
:100CD8000310A90CA80CA70CA60CFF3E031D6C2E34
:100CE800FF302905031D792E7A2E592E862E0130C4
:100CF800A5020130A0000310A60DA70DA80DA90D8F
:100D0800A00B7F2EA81B892E8A2E902E023025023A
:100D180003188F2E902E7B2E2518932E942E9C2E02
:100D2800FF30A605FF30A7057F30A805FF30A905CD
:100D38000310A50C2508A000A101A201A3011830E9
:100D48000310A00DA10DA20DA30DFF3E031DA42E9F
:100D58002008A6042108A7042208A8042308A90437
:100D680024080319B82EB92EBE2EF61FBC2EBD2E90
:100D7800BE2EA9172908F6002808F5002708F40050
:100D88002608F30008000A128A1531270A128A1168
:100D9800831203138E018F010A128A15BC260A12C8
:100DA8008A110A128A15AF260A128A1183120313AE
:100DB8000F08DB000E08DA003A30F3000030F400C8
:100DC8005B08F6005A08F5000A128A155B270A1212
:100DD8008A11730883120313D7005708FA002830C2
:100DE8007A02031CF82EF92E232F2D307A020318CD
:100DF800FE2EFF2E232F2830D7005708FA0006159D
:100E0800063083120313D9001330D800AD30D70051
:100E1800D70B0C2FD80B0C2FD90B0C2F83120313C5
:100E28000611083083120313D9009D30D80005300D
:100E3800D700D70B1D2FD80B1D2FD90B1D2F4230D4
:100E480083120313CB00C830CA000030C900003039
:100E5800C8007A08FD3EF300FF3003180030F400A4
:100E6800F501F41BF5037508F60001300A128A1122
:100E78000B260A128A11760883120313B10075082B
:100E8800B0007408AF007308AE004030AD002C30DD
:100E9800AC00ED30AB009130AA000A128A111A207A
:100EA8000A128A11831203132D08C7002C08C600E2
:100EB8002B08C5002A08C4000A128A15E4260A125B
:100EC8008A11831203134708CF004608CE0045084D
:100ED800CD004408CC000A128A117E270A128A1112
:100EE800831203134C08D7005708F900D02E0A12B2
:100EF8008A110C280310831203134E0D4F0DD000D6
:100F08005008D6005608031D8A2F8B2F942F0030C7
:100F1800CF000030CE000030CD000030CC00F92FDB
:100F28004C08D0004D08D1004E08D2004F08D3001D
:100F38001F300310D30CD20CD10CD00CFF3E031D74
:100F48009D2F5008D4005408D500CE17FF30CC058B
:100F5800FF30CD05FF30CE050030CF059630D602E4
:100F6800D61FB72FB82FD22F5608803A973E0318AE
:100F7800BE2FBF2FC02F8B2F01300310CF0CCE0CEC
:100F8800CD0CCC0CFF3E031DC12F0130D000500802
:100F9800D607031DD02FD12FC02FE92F203056029E
:100FA800031CD72FD82FE42F8B2F0130D00003102C
:100FB800CC0DCD0DCE0DCF0DD00BDB2F0130D602D1
:100FC8005608031DE82FE92FD92F55080319ED2FCF
:100FD800EE2FF92FCC09CD09CE09CF09CC0A031978
:0C0FE800CD0A0319CE0A0319CF0A080035
:101D5E0083120313861CB42EB52EAF2E10148618C4
:101D6E00B92EBA2EB62E10100800831203130614C5
:101D7E000930F300F30BC12EC42E83120313061089
:101D8E008E018F010800F30073088316031393006E
:101D9E00363083120313940080308316031394009D
:101DAE0001309100871507168B170B17831203133B
:101DBE008C11831603138C150800803083120313C5
:101DCE00C7064B08A3004A08A2004908A10048080C
:101DDE00A0004708A7004608A6004508A50044082D
:101DEE00A4000A128A117B230A128A158312031386
:101DFE002308C7002208C6002108C5002008C40019
:101E0E00080083120313A400A001A1017308F500BA
:101E1E00F6017508A2007608A300241C172F182FB0
:101E2E001E2F2208A0070318A10A2308A1070130BC
:101E3E000310A20DA30DFF3E031D1F2F0310A40CB4
:101E4E002408031D2B2F2C2F142F2108F4002008FB
:101E5E00F300080083160317890188018316031304
:101E6E0085010230860008308700880189018312BF
:101E7E00031385018601870188018901703083165D
:101E8E0003138F040F1483120313101390101008F2
:101E9E00CF39103890008B170B1780300A128A1525
:101EAE00CA260A128A15080083120313A101A20181
:101EBE00730874040319642F652F9C2FA001A00AC8
:101ECE00732F01300310F30DF40DFF3E031D692F28
:101EDE000130F7007708A007F41F762F772F682FB1
:101EEE0001300310A10DA20DFF3E031D782F7408C3
:101EFE007602031D842F73087502031C872F882F0B
:101F0E008F2F7308F5027408031CF603F6022114D2
:101F1E0001300310F40CF30CFF3E031D902F013023
:101F2E00A002031D9B2F9C2F772F2208F40021085F
:101F3E00F3000800831203138C1DA62FA72FF92F71
:101F4E001412141BAB2FAC2FB02F941FAF2FB02F2A
:101F5E00B72F1308F0007008F8001413941314161A
:101F6E0083160313941ABC2FBD2FD52F1419C02F0F
:101F7E00C12FD52F831203131308F0007008F80039
:101F8E008C11141683160313141CCE2FCF2FC92FAA
:101F9E00A630F000F00BD12F0000F62F941AD82F98
:101FAE00D92FF62F141DDC2FDD2FF62F83120313DE
:101FBE001308F0007008F800831603131410790844
:101FCE008312031393001416A630F000F00BED2FBE
:101FDE000000831603131418F52FF62FF02F83121B
:101FEE0003138C1172088A00710E8300FE0E7E0E92
:021FFE000900D8
:04400E00C420FF3F8C
:00000001FF
