:060000000A128A1110280B
:10000800FE00030E83120313A3000408A4000A08C9
:10001800A5000A128A11F12C0A128A1113280A1251
:100028008A11FF270A128A11E500DC01DD01DE01D1
:10003800DF01E001E101E201E301E401F901FA0174
:10004800FB0183010A128A1129280A128A157927C5
:100058000A128A110A128A112E270A128A110A1202
:100068008A11E8270A128A1183120313AA01AA0A1D
:1000780001300A128A1190270A128A1101300A12D5
:100088008A15A7260A128A110A128A150C260A123C
:100098008A11603083120313A6000030A7000A12E9
:1000A8008A11F5270A128A11003083120313A60059
:1000B800A7000A128A11F5270A128A110A128A154C
:1000C80015260A128A11033083120313DB00083045
:1000D800DA007630D900D90B6F28DA0B6F28DB0BE2
:1000E8006F2800000A128A150C260A128A1161303C
:1000F80083120313A6000030A7000A128A11F527FD
:100108000A128A11003083120313A600A7000A12EC
:100118008A15D0260A128A11831203132608D900D9
:100128005908E2000A128A1515260A128A110330A4
:1001380083120313DB000830DA007630D900D90BBC
:10014800A328DA0BA328DB0BA328000083120313D0
:100158006208D900DA015908AE005A08AF000A123D
:100168008A11EB250A128A1183120313AA01AA0A1B
:1001780002300A128A1190270A128A118312031375
:100188005F080A128A153C270A128A118312031380
:1001980060080A128A153C270A128A1112300A12BC
:1001A8008A15A7260A128A110A128A150C260A121B
:1001B8008A11603083120313A6000030A7000A12C8
:1001C8008A11F5270A128A11013083120313A60037
:1001D8000030A7000A128A11F5270A128A110A129A
:1001E8008A1515260A128A11033083120313DB00BD
:1001F8000830DA007630D900D90B0029DA0B00294B
:10020800DB0B002900000A128A150C260A128A1133
:10021800613083120313A6000030A7000A128A1166
:10022800F5270A128A11003083120313A600A700CB
:100238000A128A15D0260A128A1183120313260875
:10024800D9005908E1000A128A1515260A128A11DE
:10025800033083120313DB000830DA007630D9004C
:10026800D90B3429DA0B3429DB0B3429000083122B
:1002780003136108D900DA015908AE005A08AF0023
:100288000A128A11EB250A128A11831203135F08D6
:100298000A128A153C270A128A118312031360086E
:1002A8000A128A153C270A128A1112300A128A1574
:1002B800A7260A128A110A128A150C260A128A110E
:1002C800713083120313A6000030A7000A128A11A6
:1002D800F5270A128A11003083120313A600A7001B
:1002E8000A128A15D0260A128A11831203132708C4
:1002F800DD002608DC000A128A1515260A128A1162
:10030800033083120313DB000830DA007630D9009B
:10031800D90B8C29DA0B8C29DB0B8C290000831272
:1003280003135C08A6005D08A700A801A901003016
:100338000A128A1135240A128A1183120313290812
:10034800BB002808BA002708B9002608B8004030C2
:10035800B7002430B6007A30B500E130B4000A1294
:100368008A1158220A128A11831203133708D100FE
:100378003608D0003508CF003408CE000A128A119A
:100388006F250A128A11831203134F08DD004E08E5
:10039800DC005D08AF005C08AE000A128A11EB258C
:1003A8000A128A11831203135F08D9005908E3005F
:1003B8006008D9005908E4005F080A128A153C272A
:1003C8000A128A118312031360080A128A153C273D
:1003D8000A128A1115300A128A15A7260A128A11DA
:1003E80013300A128A15A7260A128A110A128A15C8
:1003F8000C260A128A11813083120313A6000030DA
:10040800A7000A128A11F5270A128A1100308312EE
:100418000313A600A7000A128A15D0260A128A1109
:10042800831203132608D9005908E5000A128A1511
:1004380015260A128A11033083120313DB000830D1
:10044800DA007630D900D90B272ADA0B272ADB0BFA
:10045800272A0000831203136508D900DA01590816
:10046800AE005A08AF000A128A11EB250A128A1147
:10047800831203135E080A128A153C270A128A118E
:10048800831203135F080A128A153C270A128A117D
:100498008312031360080A128A153C270A128A116C
:1004A80048280A128A111028831203133B0880393E
:1004B800BC003C08C5003B08BC003C07BD003D082B
:1004C800CC00BA1F682A692A6A2A4C144C080319F6
:1004D8006E2A6F2A7F2A4C0A031D732A742A7C2AE3
:1004E8000030BB000030BA000030B9000030B8005E
:1004F800BA17BB01872A0030BB000030BA000030B1
:10050800B9000030B80037088039BC003C08C5067F
:100518003708BC003C07BD003D08CD00B61F952A32
:10052800962A972A4D144D0803199B2A9C2AAC2A0F
:100538004D0A031DA02AA12AA92A0030B7000030BD
:10054800B6000030B5000030B400B617B701B42AC1
:100558000030B7000030B6000030B5000030B400FD
:100568003708360435043404031DBB2ABC2AD52AAF
:100578000030BB000030BA000030B9000030B800CD
:100588008030BA047F30BB044508BC003C08BB047B
:100598003B08B7003A08B6003908B5003808B40077
:1005A800342C4C08031DD92ADA2AE32A0030B70074
:1005B8000030B6000030B5000030B400342C4C08D0
:1005C800BC00BD013D08BF004D083C02BE00031C35
:1005D800BF033E087F3EC6003F080318013E003EA9
:1005E800C7003B08C4003A08C3003908C2003808ED
:1005F800C1000030BB000030BA000030B900003044
:10060800B8000030CB000030CA000030C90000300C
:10061800C800CD01592B4D080319132B142B342B6B
:100628000130BC000310C10DC20DC30DC40DBC0BBD
:10063800162B0130BC000310B80DB90DBA0DBB0D57
:10064800BC0B1F2BCB1F292B2A2B2B2B381401302B
:10065800BC000310C80DC90DCA0DCB0DBC0B2D2B4A
:1006680037084402031D422B36084302031D422B60
:1006780035084202031D422B34084102031C452B56
:10068800462B552B4B173408C1023508031C350F70
:10069800C2023608031C360FC3023708031C370F83
:1006A800C4020130BC003C08CD071A304D02031CBF
:1006B8005E2B5F2B0F2B44084304420441040319AB
:1006C800662B672B862B4814862B0130BC00031041
:1006D800B80DB90DBA0DBB0DBC0B6B2BCB1F752B11
:1006E800762B772B38140130BC000310C80DC90DC8
:1006F800CA0DCB0DBC0B792BFF30C6070318C70AF0
:10070800FF30C707BA1F892B8A2B692BCD01CB1F56
:100718008E2B8F2BAB2BFF304805BC00FF304905D3
:10072800BD00FF304A05BE007F304B05BF003F08C3
:100738003E043D043C040319A22BA32BA62BCD0198
:10074800CD0AAB2B381CA92BAA2BAB2BA32B4D08FE
:100758000319AF2BB02BE12B0130B8070030031879
:100768000130B907003003180130BA070030031808
:100778000130BB073B1CC12BC22BE12B3808BC0046
:100788003908BD003A08BE003B08BF000130C00070
:100798003F0DBF0CBE0CBD0CBC0CC00BCC2B3F08D6
:1007A800BB003E08BA003D08B9003C08B80001305B
:1007B800C6070318C70A0030C7074708803AFF0072
:1007C80080307F02031DEA2BFF304602031CED2B0D
:1007D800EE2BFC2BFF3083120313C6000030C7003A
:1007E8000030BB000030BA000030B9000030B8005B
:1007F800831203134708803AFF0080307F02031DED
:10080800072C0130460203180A2C0B2C182C8312D3
:100818000313C601C7010030BB000030BA00003026
:10082800B9000030B800C501831203134608BC00A4
:100838003C08CC004C1C212C222C242CBA17282C28
:100848007F30BC003C08BA054C08BC0003103C0CC7
:10085800BD003D08BB004508BC003C08BB04CC2AD1
:10086800080083120313AE002E0803193C2C3D2CFC
:10087800512CA91F402C412C512C2609B0002709C6
:10088800B1002809B2002909B300B00A0319B10A56
:100898000319B20A0319B30A592C2908B300280806
:1008A800B2002708B1002608B00029082804270448
:1008B8002604031D602C612C6A2C0030A90000302E
:1008C800A8000030A7000030A600F02C9630AA003F
:1008D8002A08AF007C2C0130AA002A08AF07013093
:1008E8000310B30CB20CB10CB00CFF3E031D742CFA
:1008F800FE303305031D812C822C6F2C9E2C013079
:10090800AA002A08AF070130B007003003180130E9
:10091800B107003003180130B20700300318013066
:10092800B30701300310B30CB20CB10CB00CFF3E8E
:10093800031D962CFF303305031DA32CA42C832CF8
:10094800B02C0130AF020130AA000310B00DB10D78
:10095800B20DB30DAA0BA92CB21BB32CB42CBA2C14
:1009680002302F020318B92CBA2CA52C2F18BD2C35
:10097800BE2CC62CFF30B005FF30B1057F30B20564
:10098800FF30B3050310AF0C2F08AA00AB01AC0170
:10099800AD0118300310AA0DAB0DAC0DAD0DFF3E27
:1009A800031DCE2C2A08B0042B08B1042C08B2046D
:1009B8002D08B3042E080319E22CE32CE82CA91FF8
:1009C800E62CE72CE82CB3173308A9003208A80056
:1009D8003108A7003008A60008008C1EF42CF52C5E
:1009E800662D1A08A0002008FB004F2D6208303E33
:1009F8009900652D0730F0000030F1006508A0006F
:100A0800A1012008F2002108F3000A128A11C72662
:100A18000A128A11700883120313A2002208F9002F
:100A28007908303E9900652DFA01392D023083127C
:100A38000313A2000430A100B930A000A00B222D9E
:100A4800A10B222DA20B222D292D831203130C1E7C
:100A58002E2D2F2D352D7A08633E84008313000830
:100A680099000130A0002008FA0763300A128A159D
:100A78002B260A128A117A0883120313A000A101F7
:100A880071082102031D4A2D70082002031C4D2DF8
:100A98004E2D1A2D652D7B08A000A1012108003AD2
:100AA8000319572D652D2008613A0319FA2C033ACA
:100AB8000319FA2C013A0319FE2C073A0319182DC9
:100AC800652D8C1225088A0024088400230E8300D3
:100AD800FE0E7E0E0900031083120313500D510DF4
:100AE800D2005208D8005808031D7B2D7C2D852D77
:100AF8000030D1000030D0000030CF000030CE00F0
:100B0800EA2D4E08D2004F08D3005008D4005108EF
:100B1800D5001F300310D50CD40CD30CD20CFF3EDB
:100B2800031D8E2D5208D6005608D700D017FF3067
:100B3800CE05FF30CF05FF30D0050030D105963007
:100B4800D802D81FA82DA92DC32D5808803A973E42
:100B58000318AF2DB02DB12D7C2D01300310D10C11
:100B6800D00CCF0CCE0CFF3E031DB22D0130D200AD
:100B78005208D807031DC12DC22DB12DDA2D203002
:100B88005802031CC82DC92DD52D7C2D0130D2004B
:100B98000310CE0DCF0DD00DD10DD20BCC2D0130C1
:100BA800D8025808031DD92DDA2DCA2D5708031964
:100BB800DE2DDF2DEA2DCE09CF09D009D109CE0AC5
:100BC8000319CF0A0319D00A0319D10A080083129E
:100BD80003132F08B3002E08B2006430A6000030BB
:100BE800A7003308A9003208A8000A128A15BA27F4
:100BF8000A128A11831203132608B0003008DE0097
:100C08005E08B000B1013008A6003108A7009C308A
:100C1800A800FF30A9000A128A1580260A128A1134
:100C28008312031332082607B20033080318330A65
:100C38002707B3000A30A6000030A7003308A90030
:100C48003208A8000A128A15BA270A128A118312D2
:100C580003132608B0003008DF005F08B000B101B8
:100C68003008A6003108A700F630A800FF30A90018
:100C78000A128A1580260A128A118312031332086F
:100C88002607B20033080318330A2707B3003208CF
:100C9800B0003008E0006008303EB0003008E000E6
:100CA8005F08303EB0003008DF005E08303EB0001C
:100CB8003008DE000800003083120313B200003051
:100CC800B1000030B0000030AF0029082804270424
:100CD80026040319702E712EBE2EB301B30A812E7D
:100CE8000130AE000310A60DA70DA80DA90DAE0B7F
:100CF800762E0130AE002E08B307A91F842E852E4C
:100D0800742E0130AE000310AF0DB00DB10DB20D51
:100D1800AE0B872E29082D02031D9C2E28082C02B5
:100D2800031D9C2E27082B02031D9C2E26082A0231
:100D3800031C9F2EA02EAF2E2608AA022708031CEC
:100D4800270FAB022808031C280FAC022908031C34
:100D5800290FAD022F1401300310A90CA80CA70C01
:100D6800A60CFF3E031DB02E0130B302031DBD2E9D
:100D7800BE2E852E3208A9003108A8003008A70029
:100D88002F08A6000800F601F11FCB2ECC2ED32E7B
:100D9800F009F109F00A0319F10AF601F60AF31F3E
:100DA800D62ED72EE02EF209F309F20A0319F30A18
:100DB8000130F4007408F606F701F80170087104B0
:100DC8000319E72EE82E1F2FF501F50AF62E01303C
:100DD8000310F00DF10DFF3E031DEC2E0130F40061
:100DE8007408F507F11FF92EFA2EEB2E01300310C7
:100DF800F70DF80DFF3E031DFB2E71087302031D4E
:100E0800072F70087202031C0A2F0B2F122F70086D
:100E1800F2027108031CF303F30277140130031084
:100E2800F10CF00CFF3E031D132F0130F502031DDA
:100E38001E2F1F2FFA2E76080319232F242F292F50
:100E4800F709F809F70A0319F80A7808F10077088A
:100E5800F000080000300A128A1560260A128A116A
:100E6800343083120313AB00F130AA00AA0B3A2FD7
:100E7800AB0B3A2F03300A128A1544260A128A113C
:100E88000D3083120313AB00FB30AA00AA0B4A2FC4
:100E9800AB0B4A2F03300A128A1544260A128A110C
:100EA8001D3083120313AB009030AA00AA0B5A2FEF
:100EB800AB0B5A2F000003300A128A1544260A1277
:100EC8008A1102300A128A1544260A128A1102303F
:100ED8000A128A1544260A128A1108300A128A153B
:100EE80044260A128A1100300A128A1544260A1268
:100EF8008A110C300A128A1544260A128A11003007
:100F08000A128A1544260A128A1106300A128A150C
:100F180044260A128A11080083120313AD002D0318
:100F2800031D972F982FBD2F2A087F3EAB002B0853
:100F3800B0003008AB0004300310AB0CFF3E031DBB
:100F4800A02F2B08AC002C08AE0030080F39AB00DE
:100F58002B08AF002E080A128A1544260A128A1195
:100F6800831203132F080A128A1544260A128A11BB
:100F7800E72F02302D06031DC22FC32FE72F2A08A3
:100F8800BF3EAB002B08B0003008AB0004300310A4
:100F9800AB0CFF3E031DCB2F2B08AC002C08AE007A
:100FA80030080F39AB002B08AF002E080A128A153B
:100FB80044260A128A11831203132F080A128A156B
:100FC80044260A128A11080000300A128A1544269B
:100FD8000A128A1101300A128A1544260A128A1145
:100FE80008000A128A151E260A128A118312031390
:100FF800260893000800053408308A000408840A8B
:1010080082070034433443343A3420345334703440
:101018003A3420344C347A343A34203454346E34EC
:101028006B343A340034203420340034253400340E
:101C18000A128A151E260A128A158316031311142E
:101C280008000A128A151E260A128A15831603133B
:101C380011150800831603131419232E242E1E2EA3
:101C480011081F39031D292E2A2E1E2E0800F30005
:101C58007308F2007208F400352E0130F2007208A1
:101C6800F4077408840083130008031D3C2E3D2EDE
:101C7800312E73087402F000F101F01BF103080023
:101C880083120313A900081129080A128A1560266D
:101C98000A128A158312031388150B308312031353
:101CA800A8006130A700A70B572EA80B572E5C2E53
:101CB800831203138811080083120313A600261C3D
:101CC800662E672E692E08166A2E0812A61C6D2E1F
:101CD8006E2E702E8816712E8812261D742E752E63
:101CE800772E0817782E0813A61D7B2E7C2E7E2EA5
:101CF80088177F2E8813080083120313AA01AB01EB
:101D0800261C872E882E8E2E2808AA070318AB0AB1
:101D18002908AB0701300310A80DA90DFF3E031DCC
:101D28008F2E01300310A70CA60CFF3E031D962E24
:101D380026082704031DA12EA22E842E2B08A700F7
:101D48002A08A600080083120313AD00AB01AC01FA
:101D5800C22E2B082D0784000A128A1500200A12A9
:101D68008A150A128A153C270A128A15013083122D
:101D78000313AB070318AC0A0030AC072B082D0778
:101D880084000A128A1500200A128A15003A031DD7
:101D9800CE2ECF2EAD2E08000A128A151E260A1244
:101DA8008A158316031391150A128A151E260A121C
:101DB8008A15831203131308A800A9012808AA008A
:101DC8002908AB000A128A151E260A128A158312E0
:101DD800031326032704031DF22EF32EF72E831672
:101DE80003139112FA2E83160313911611168312F8
:101DF80003132B08A7002A08A6000800283083121E
:101E080003139400831603139101831203133408F8
:101E1800B8003508B9003608BA003708BB000230E8
:101E28000310B80DB90DBA0DBB0DFF3E031D142FDD
:101E38003B08A9003A08A8003908A7003808A600F6
:101E48000030AD007A30AC001230AB000030AA0090
:101E58000A128A115F260A128A15831203132608AA
:101E6800FF3E831603139300940187150716080095
:101E780083120313AA002A080F39A7002708A8000D
:101E88002A08F039A7002708A90008152908A7007B
:101E980004300310A70CFF3E031D4D2F27080A121C
:101EA8008A1560260A128A158312031388151930B9
:101EB80083120313A700A70B5F2F622F831203134C
:101EC800881128080A128A1560260A128A158312B0
:101ED80003138815193083120313A700A70B722F59
:101EE800752F8312031388110800831603178901BD
:101EF80088018316031385018601803087008801D5
:101F080089018312031385018601870188018901EC
:101F18007030831603138F040F14003083120313D9
:101F2800B7000130B6008630B500A030B4000A1200
:101F38008A1502270A128A1583160313181398168E
:101F480018121815831203139817181318168316E6
:101F580003178715CF308316031399009A018B173F
:101F68000B178C16831203138C12080083120313A9
:101F7800AB01AC01260827040319C32FC42FFB2F7C
:101F8800AD01AD0AD22F01300310A60DA70DFF3EFB
:101F9800031DC82F0130AA002A08AD07A71FD52F97
:101FA800D62FC72F01300310AB0DAC0DFF3E031D1C
:101FB800D72F27082902031DE32F26082802031C10
:101FC800E62FE72FEE2F2608A8022708031CA903EF
:101FD800A9022B1401300310A70CA60CFF3E031D09
:101FE800EF2F0130AD02031DFA2FFB2FD62F2C083F
:081FF800A7002B08A600080059
:04400E00C420FF3F8C
:00000001FF
